:020000040800F2
:100000007804002001010008E50A0008DD0A000864
:10001000E10A00087D0900088B16000800000000B6
:100020000000000000000000000000003D1000087B
:10003000C509000800000000D90E00085111000891
:100040001B0100081B0100081B0100081B01000820
:100050001B0100081B0100081B0100081B01000810
:100060001B0100081B0100081B0100081B01000800
:100070001B0100081B0100081B0100081B010008F0
:100080001B0100081B0100081B0100081B010008E0
:100090001B0100081B0100081B0100081B010008D0
:1000A0001B0100081B0100081B0100081B010008C0
:1000B0001B0100081B0100081B0100081B010008B0
:1000C0001B0100081B0100081B0100081B010008A0
:1000D0001B0100087D1400081B0100081B0100081B
:1000E0001B0100081B0100081B010008DFF80CD0F1
:1000F00000F032FC0048004745200008780400204A
:100100000648804706480047FEE7FEE7FEE7FEE7B1
:10011000FEE7FEE7FEE7FEE7FEE7FEE75511000813
:10012000ED00000840EA01039B0703D009E008C97D
:10013000121F08C0042AFAD203E011F8013B00F8AC
:10014000013B521EF9D27047F0B480EA0102D40F8D
:100150004200B2EB410F02D20246084611464A0065
:1001600042D0C30DDDB2C1F3C752AD1A202D35DA2E
:10017000C1F3160141F4000204B15242C5F1200658
:1001800002FA06F12A411044B3EBD05F23D0C4B188
:10019000012DA0EBC35009DCF0BC4FF0004202EA95
:1001A000C352DBB200F5000000F0ABBA400000F132
:1001B000807000EBC350A0F1807040EAD17049001C
:1001C00009E0490841EAC071A0EBC35000F5000006
:1001D000400800EBC350F0BC00F08ABA6142012233
:1001E00002EB4101001BF6E7F0BC704781F00041D3
:1001F000AAE780F00040A7E780EA010210B502F00C
:100200000043400022D04A001FD0010E01EB1261D2
:10021000C0F35600C2F3560240F4000042F400025C
:10022000A0FB022000047F39140400D0401C50EAD7
:10023000124001D44000491EC2B20C0604EBD0109B
:10024000401C4008802A02D003E0002010BD20F0AE
:100250000100002900DA0020184310BD30B480EA04
:10026000010202F0004530F0004221F0004013D0BE
:1002700090B1C30DD40DC2F31601C0F31600E41AF9
:1002800041F4000140F400027D34914201D3641C2A
:1002900000E04900002C02DA30BC002070474FF427
:1002A00000000023914201D3891A034340084FEA1A
:1002B0004101F7D151B1914202D14FF0004105E027
:1002C00002D24FF0010101E06FF0010103EBC450D5
:1002D000284430BC00F00CBA2DE9FE4F804681EA7C
:1002E0000300C00F0C46009021F0004123F00045B0
:1002F000B8EB0200A94105D24046214690461C4673
:100300000B46024623F00040104347D0270DC7F3A9
:100310000A00C3F30A510290401A019040286BDA98
:10032000C3F3130040F4801B0098924620B10023D1
:10033000D2EB030A63EB0B0B01985946C0F1400264
:10034000504600F0A4F906460D4650465946019A1B
:1003500000F0BCF910EB08006141002487EA11525B
:1003600084EAE7731A4340D0009A62B3019A012AE3
:100370004FEA075215DC001B61EB02014FF000420F
:1003800002EA0752CDE90042001C41F580113246D5
:100390002B4600F0F3F903B0BDE8F08F404621464C
:1003A000F9E7001B61EB0201001C41F58013001806
:1003B0005B412018A2F5001747EB030140EAD57016
:1003C000B6196D4111E06D084FEA360645EAC07571
:1003D0004FEA0752001B61EB0201001C41F580113E
:1003E00049084FEA30000019514132462B4603B00C
:1003F000BDE8F04F00F0B3B900980122400000239F
:10040000D0EB020263EBE073009821464FEAE07400
:10041000B8EB000061EB0401E9E783F000435BE720
:1004200081F0004158E72DE9FE4F81EA030404F012
:10043000004421F0004100944FF0000B23F00043F2
:1004400050EA01045ED052EA03045BD0C3F30A54BD
:10045000C1F30A552C44A4F2F3340194A0FB0254D6
:10046000C1F3130141F48011C3F3130343F4801368
:1004700001FB024400FB034E840A970A44EA8154BC
:1004800047EA8357A4FB076802958D0A05FB078599
:100490004FEA932C04FB0C542705029D4FEA0658A3
:1004A00047EA1637B5EB08056EEB070C870E920E80
:1004B00047EA811742EA8312A7FB0201B6EB0B0160
:1004C00064EB00042B0D43EA0C335E1844EB1C5024
:1004D000DA465146E7FB0201C5F313044FEA0B333A
:1004E00043EA14534FEA0432019C43EA0603A4F1A1
:1004F0000C040294009CCDE900B400F03FF903B075
:10050000BDE8F08F00200146F9E7C10F80EAE070F6
:100510000844CA079623002100F0F3B800F0004217
:1005200020F00040C10DC0F3160040F400007F2908
:1005300001DA00207047962903DCC1F19601C8401A
:1005400001E096398840002AF4D040427047C1F358
:100550000A5210B5C1F3130140F2FF3341F4801188
:100560009A4201DA002010BD40F233439A42A2F2CF
:10057000334203DC524200F099F810BD904010BDA8
:1005800000F0004230F000400AD0C10D01F560716A
:10059000C0F3160042EA0151C208400711437047F8
:1005A000002001467047000030B5041E71F10004C0
:1005B00004DB4FF00044404264EB0101141E73F170
:1005C000000405DB1C464FF00043524263EB04037A
:1005D0008B4208BF824230BD002801DBC0F10040E1
:1005E000002901DBC1F1004181427047002801DB95
:1005F000C0F10040002901DBC1F100418842704791
:1006000030B50B46014600202022012409E021FAE2
:1006100002F59D4205D303FA02F5491B04FA02F5DF
:100620002844151EA2F10102F1DC30BD2DE9F05F76
:100630000546002092469B46884606468146402451
:100640001BE0284641464746224600F02FF8534615
:100650005A46C01A914110D311461846224600F05E
:1006600016F82D1A67EB01084F462246012000219B
:1006700000F00DF817EB00094E41201EA4F1010413
:10068000DFDC484631462A464346BDE8F09F202A33
:1006900004DB203A00FA02F1002070479140C2F1D9
:1006A000200320FA03F3194390407047202A04DB0B
:1006B000203A21FA02F00021704721FA02F3D040DB
:1006C000C2F120029140084319467047202A06DBF8
:1006D000CB17203A41FA02F043EAE07306E041FA10
:1006E00002F3D040C2F120029140084319467047FE
:1006F0000029A8BF7047401C490008BF20F0010036
:10070000704710B4B0FA80FC00FA0CF050EA010413
:1007100004BF10BC704749B1CCF1200421FA04F4A5
:1007200011FA0CF118BF012121430843A3EB0C017E
:10073000CB1D4FEA00614FEA102042BF002010BCE1
:10074000704700EBC35010440029A4BF10BC704791
:10075000401C490008BF20F0010010BC704710B5D4
:10076000141E73F1000408DA401C41F100019218D4
:100770005B411A4301D120F0010010BD2DE9F04D7D
:1007800092469B4611B1B1FA81F202E0B0FA80F2D2
:1007900020329046FFF77BFF04460F4640EA0A00EE
:1007A00041EA0B0153465A46084313D0114653EA17
:1007B000010019D0C8F140025046FFF777FF054607
:1007C0000E46504659464246FFF761FF084305D0A2
:1007D000012004E020463946BDE8F08D00200543A5
:1007E00046EAE0762C4337430A986305E40AA0EB17
:1007F00008000022FD0A44EA47540A3002D50020CE
:100800000146E9E7010510196941DDE908450019CC
:100810006941BDE8F04DA2E72DE9F04D81EA0304FE
:1008200004F0004B21F0004514464FF0000A23F07D
:10083000004150EA050220D054EA01021DD0C5F360
:100840000A570246C5F31303C1F31300C1F30A5656
:1008500040F4801543F48013A7EB0608101BD6461E
:1008600008F2FD3873EB050002D308F1010801E03E
:1008700092185B41B8F1000F03DA00200146BDE891
:10088000F08D00204FF48011064684460EE0171BC1
:1008900073EB050705D3121B63EB050306434CEA14
:1008A000010C49084FEA300092185B4150EA0107F9
:1008B000EDD152EA030012D082EA040083EA050176
:1008C000084305D0101BAB4106D20122002306E0ED
:1008D00000224FF0004302E06FF0010253101AEBC8
:1008E00006004CEB085110EB0A0041EB0B01BDE890
:1008F000F04DFFF734BFC1F30A52C1F3130140F2C8
:10090000FF3341F480119A4202DA00200146704719
:1009100040F233439A42A2F2334202DC5242FFF7E2
:10092000C5BEFFF7B4BE000030B5041E71F100046F
:1009300004DB4FF00044404264EB0101141E73F1EC
:10094000000405DB1C464FF00043524263EB0403F6
:10095000994208BF904230BD064C074D06E0E06862
:1009600040F0010394E8070098471034AC42F6D3F6
:10097000FFF7C0FB80210008A021000800BFFEE7B0
:1009800010B59621094800F022FD9621074800F095
:1009900020FD0020064908600649086006490860F5
:1009A0000649086001200649086010BD00040040A7
:1009B0004C0000205000002054000020580000206F
:1009C0006000002070472DE9F04102460025002616
:1009D000002000230024002791F803C00CF00F052D
:1009E00091F803C00CF0100CBCF1000F03D091F88B
:1009F00002C04CEA050591F800C0BCF1000F31D0EF
:100A0000146800202BE04FF0010C0CFA00F3B1F851
:100A100000C00CEA03069E4220D183004FF00F0C69
:100A20000CFA03F7BC4305FA03FC4CEA040491F802
:100A300003C0BCF1280F06D14FF0010C0CFA00FCEA
:100A4000C2F814C00AE091F803C0BCF1480F05D108
:100A50004FF0010C0CFA00FCC2F810C0401C082832
:100A6000D1D31460B1F800C0BCF1FF0F34DD54687D
:100A700000202EE000F1080C4FF0010808FA0CF3FA
:100A8000B1F800C00CEA03069E4221D183004FF06A
:100A90000F0C0CFA03F7BC4305FA03FC4CEA040400
:100AA00091F803C0BCF1280F05D100F1080C08FA39
:100AB0000CF8C2F8148091F803C0BCF1480F07D1BC
:100AC00000F1080C4FF0010808FA0CF8C2F8108089
:100AD000401C0828CED35460BDE8F08100BFFEE77B
:100AE00000BFFEE7704708B54FF4A06000F048F87B
:100AF00025208DF8000003208DF801008DF80200FC
:100B000001208DF80300684600F002F808BD0000DF
:100B100070B5002100230F22C47804B3154C24685B
:100B200004F4E064C4F5E064210AC1F10403CA409E
:100B3000447804FA03F184781440214309010E4CEF
:100B40000678A155047804F01F050124AC4005780F
:100B50006D11AD0005F1E025C5F8004109E004780C
:100B600004F01F050124AC40044D0678761145F8C9
:100B7000264070BD0CED00E000E400E080E100E004
:100B800002490143024A1160704700000000FA0563
:100B90000CED00E02DE9F04F89B080468946924681
:100BA0009B46A8EB0A00FFF7B0FC0446A9EB0B003C
:100BB000FFF7ABFC05462846FFF7E2FCCDE906014E
:100BC0002046FFF7DDFCCDE90401DDE90601CDE9B2
:100BD0000001A9A0DDE9042300F05AFD2046FFF73B
:100BE000CFFC21F000410022A54BCDE90601FFF723
:100BF000DBFC02D20020A34908602846FFF7C0FCB6
:100C000021F0004100229E4BCDE90601FFF7CCFC0C
:100C100002D200209C4908609A480068FFF775FCE2
:100C200021460790FFF790FA0890FFF777FC954967
:100C3000086095480068FFF768FC29460790FFF7B1
:100C400083FA0890FFF76AFC8F4908608F480068B4
:100C500078B121468E480068FFF7CEFA064629464D
:100C60008C480068FFF7C8FA0746002087490860EB
:100C70009EE02046FFF784FC21F000410022864BD5
:100C8000CDE90601FFF790FC1CD22846FFF778FC5F
:100C900021F000410022804BCDE90601FFF784FCE2
:100CA00010D27E487A49086000207D4908607D495D
:100CB00008607D487749086000207C4908607C49CD
:100CC00008602BE02046FFF75BFC21F0004100228A
:100CD000784BCDE90601FFF767FC1FD22846FFF7E6
:100CE0004FFC21F000410022724BCDE90601FFF7D5
:100CF0005BFC13D24FF07A50654908606E48684932
:100D000008606E48674908604FF07A506149086092
:100D1000694866490860694865490860684801682B
:100D20002046FFF763FA06905E4801680698FFF7D1
:100D300063FA089053480068FFF7E7FB04905848AF
:100D400001680498FFF758FA214606905048006859
:100D5000FFF752FA05900699FFF7F6F90790089900
:100D6000FFF7F2F90646574801682846FFF73EFAB2
:100D700006904F4801680698FFF73EFA08904248EF
:100D80000068FFF7C2FB0490484801680498FFF729
:100D900033FA294606903F480068FFF72DFA059080
:100DA0000699FFF7D1F907900899FFF7CDF90746A3
:100DB0004348046043480560304601F017F9064691
:100DC000384601F013F907463846FFF7D9FBCDE95D
:100DD00006013046FFF7D4FBCDE90401DDE9060149
:100DE000CDE9000124A0DDE9042300F051FC00213D
:100DF0003046FFF7A9F934490090FFF72FFA019028
:100E0000FFF7BEFB0022314BCDE90201FFF764FA88
:100E100000222F4BCDE90401FFF705FBCDE90601C8
:100E2000FFF795FB80B2014608902A4800F0CFFA00
:100E300000213846FFF788F923490090FFF70EFAA2
:100E40000190FFF79DFB0022204BCDE90201FFF747
:100E500043FA00221E4BCDE90401FFF7E4FACDE985
:100E60000601FFF774FB80B201460890194800F0B4
:100E7000B0FA09B0BDE8F08F2566256600000000D5
:100E8000000039405400002058000020600000207D
:100E9000340000204000002000C06240CDCC4C3D1A
:100EA000380000203C0000208FC2F53C44000020A8
:100EB000480000200030814017B7D1380000A04022
:100EC0004C000020500000200000B4420000E03F31
:100ED00000005940000400407047000029B1064A54
:100EE000D2690243044BDA6104E0034AD2698243C7
:100EF000014BDA61704700000010024029B1064A38
:100F000092690243044B9A6104E0034A9269824366
:100F1000014B9A61704700000010024030B500217B
:100F20000022002400232D4D6D6805F00C0121B135
:100F3000042905D0082923D105E0294D056022E0C8
:100F4000274D05601FE0254D6D6805F47012234D97
:100F50006D6805F48034022505EB92421CB9214DE1
:100F6000554305600BE01D4D6D6805F400351DB15E
:100F70001C4D5543056002E0194D5543056002E0E4
:100F8000174D056000BF00BF144D6D6805F0F001FE
:100F90000909154D6B5C0568DD4045600F4D6D68B6
:100FA00005F4E061090A104D6B5C4568DD40856021
:100FB0000A4D6D6805F46051C90A0B4D6B5C4568BC
:100FC000DD40C560054D6D6805F44041890B074D56
:100FD0006B5CC568B5FBF3F5056130BD00100240E0
:100FE00000127A0000093D001400002024000020B7
:100FF00010B50E4800F040FB0D490E4A126821F86A
:10100000120008460088702804D10A480068401C75
:101010000849086007480068082805DB01200649E0
:10102000087000200349086010BD0000003801402E
:1010300068000020300000202C000020704710B510
:1010400000F002F810BD00000CB5002001900090E7
:101050003348006840F480303149086000BF3048B0
:10106000006800F4003000900198401C0190009846
:1010700018B90198B0F5A06FF1D12948006800F4C3
:10108000003010B10120009001E000200090009895
:10109000012843D12348006840F01000214908602E
:1010A0000846006820F0030008600846006840F029
:1010B000020008601A4840681949486008464068BC
:1010C00048600846406840F48060486008464068D0
:1010D00020F47C1048600846406840F4E8104860FE
:1010E0000846006840F08070086000BF0C48006847
:1010F00000F000700028F9D00948406820F0030093
:10110000074948600846406840F00200486000BF58
:101110000348406800F00C000828F9D10CBD00001D
:101120000010024000200240042808D14FF0E021C6
:10113000096941F004014FF0E022116107E04FF02E
:10114000E021096921F004014FF0E02211617047AC
:101150007047000010B51348006840F001001149C5
:10116000086008464068104908400E494860084633
:1011700000680E4908400B4908600846006820F4E2
:10118000802008600846406820F4FE0048604FF464
:101190001F008860FFF753FF4FF0006004490860AC
:1011A00010BD0000001002400000FFF8FFFFF6FE37
:1011B00008ED00E030B589B005460C46012102205B
:1011C000FFF78CFE01210420FFF798FEC020ADF848
:1011D000200018208DF8230003208DF8220008A994
:1011E0001848FFF7F0FBADF81850ADF81440002098
:1011F000ADF81A00ADF8160005A9134800F0ECF898
:101200006020ADF804000120ADF806000020ADF824
:101210000A00ADF80C0001A90B4800F023F801A961
:10122000094800F075F80821074800F067F8082120
:10123000054800F0BFF80121034800F007F809B0A5
:1012400030BD0000000801400004004021B10288C8
:1012500042F00102028004E002884FF6FE731A4059
:101260000280704770B5002400220023058C4FF6E1
:10127000FE7635400584028C8388048B4FF68F758B
:101280002C40B51E2C400D882C43751E2A400D891C
:101290002A434D882A43144DA8420BD0134DA8422F
:1012A00008D0134DA84205D0124DA84202D0124DCD
:1012B000A84213D14FF6F7752A404D892A434FF6BD
:1012C000FB752A408D882A434FF6FF652B404FF669
:1012D000FF552B408D892B43CD892B43838004837D
:1012E000CD888586028470BD002C01400034014009
:1012F0000040014000440140004801400A460021EE
:10130000018B4FF6F77319401143018370470000BA
:1013100070B5002400220023058C4FF6EF7635408F
:101320000584028C8388048B48F6FF752C404FF6A9
:10133000FF452C400D884FF6FF7606EA05252C4325
:101340004FF6DF752A400D8906EA05152A434D88B8
:1013500006EA05152A43154DA84202D0144DA842AD
:101360001DD14FF67F752A404D894FF6FF7606EA6C
:1013700005152A434FF6BF752A408D8806EA0515E4
:101380002A434FF6FF352B404FF2FF752B408D89D6
:1013900006EA85052B43CD8906EA85052B43838024
:1013A0000483CD880587028470BD0000002C0140B5
:1013B000003401400A460021018B4FF2FF731940AF
:1013C0004FF6FF7303EA02231943018370478186B6
:1013D0007047018770470000002202881D4B984229
:1013E0000ED01D4B98420BD0B0F1804F08D01B4B54
:1013F000984205D01A4B984202D01A4B984204D119
:101400004FF68F731A404B881A43174B984207D0F8
:10141000164B984204D04FF6FF431A40CB881A432C
:1014200002808B8883850B8803850A4B98420BD0FA
:10143000094B984208D00E4B984205D00D4B98426C
:1014400002D00D4B984201D10B7A0386012383828F
:1014500070470000002C01400034014000040040AF
:1014600000080040000C0040001000400014004044
:1014700000400140004401400048014010B52021D7
:10148000034800F05BF808B1FFF7B2FD10BD0000A3
:101490000038014021B1828942F40052828104E087
:1014A00082894DF6FF731A408281704700B585B07E
:1014B00001210420FFF722FD01218803FFF71EFD13
:1014C0004FF40070ADF8100018208DF813000320C1
:1014D0008DF8120004A91748FFF775FA4FF48060E1
:1014E000ADF8100004208DF8130004A91148FFF78F
:1014F0006AFA4FF4E13000900020ADF80400ADF836
:101500000600ADF80800ADF80C000C20ADF80A009C
:101510006946094800F044F8FFF7E5FA012240F275
:101520002551054800F017F801210348FFF7B2FFE5
:1015300005B000BD0008014000380140024600200F
:10154000B1F5007F00D100BF13880B400BB1012023
:1015500000E000207047F0B5034600240026002577
:10156000002040F66A17B94200D100BF1846C1F307
:10157000421401F01F06012707FA06F5012C01D1DC
:101580000C3004E0022C01D1103000E014301AB10C
:1015900007682F43076002E00768AF430760F0BDAC
:1015A0002DE9F04786B005460E460024A24600BF4E
:1015B000A1460027B08900B100BF2F462C8A4CF607
:1015C000FF700440F08804432C82AC894EF6F3107F
:1015D0000440B08831890843718908430443AC81D1
:1015E000AC8A4FF6FF400440B0890443AC8201A8A6
:1015F000FFF794FC1F48874202D1DDF810A001E0FC
:10160000DDF80CA0A88900F4004040B10AEBCA0044
:1016100000EB0A1031684900B0FBF1F807E00AEB73
:10162000CA0000EB0A1031688900B0FBF1F86420B1
:10163000B8FBF0F004012009642101FB1089A8899E
:1016400000F4004040B1322000EBC900B0FBF1F0E3
:1016500000F00700044308E0322000EB0910642189
:10166000B0FBF1F000F00F0004432C8106B0BDE8A0
:10167000F08700000038014001468888C0F3080068
:101680007047C1F308028280704700BFFEE7000088
:101690000FB4054B10B503A9044A029800F0DAF81C
:1016A00010BC5DF814FB0000C91F00086400002096
:1016B00002E008C8121F08C1002AFAD1704770471B
:1016C000002001E001C1121F002AFBD17047000079
:1016D0002DE9FF5F82B00021DDE90430020DDDF865
:1016E00040B0034318D044F61050A2F2FF324243F8
:1016F0001514119801281FD0A5EB0B00401C5FEAC0
:10170000000A4FF000064E4FDFF83891B0465046C1
:1017100015D5CAF1000413E0119801244AA3012849
:1017200001D16FEA0B010298119AC0E90031C0E9BA
:10173000024206B0BDE8F09FCBF10000DFE70446AF
:101740000021404A491842EB0450CDE9001012E054
:10175000E00707D032463B4640464946FEF763FE67
:101760008046894632463B4610461946FEF75BFEE8
:1017700006460F466410002CEAD1DDE90401DDE9DC
:101780000023BAF1000F06DAFEF74DFE42464B4643
:10179000FEF749FE05E0FFF73FF842464B46FFF7EC
:1017A0003BF804460E460022284BFFF7BDF803D84D
:1017B0004FF0FF30014607E00022254B204631461E
:1017C000FEF78AFDFFF797F8102409E0002C0ADBEA
:1017D0000A220023FEF72AFF039B30321A55641EAB
:1017E00050EA0102F2D1641C039AC4F111031444BB
:1017F000119A012A03D0012208430DD10AE00843BF
:1018000004D000204FF0110B119072E7A3EB0B05F1
:101810006D1E0DE05B4504DD4FF0000205F1010592
:1018200004E003DA4FF00002A5F10105002AECD034
:1018300002981199C0E90231C0E9004579E700003A
:10184000000014400000F03F300000000000F043B2
:101850000000E03F2DE9FF4F95B09B4689460646C4
:1018600000250FE2252877D100242746F84A0121D8
:10187000059400E0044316F8013F203B01FA03F011
:101880001042F7D130782A2811D06FF02F0330782A
:10189000A0F13002092A16D8059A44F0020402EB9E
:1018A000820203EB42021044761C0590EFE759F8E0
:1018B000042B0592002A03DA504244F400540590A8
:1018C00044F00204761C30782E2816D116F8010F49
:1018D00044F004042A280DD06FF02F023078A0F1D4
:1018E0003003092B09D807EB870302EB4303C71822
:1018F000761CF3E759F8047B761C30786C280FD0FF
:1019000006DC4C2817D068280DD06A2814D104E0D2
:10191000742810D07A280FD10DE044F400140AE0A6
:1019200044F4801401E044F440147278824202D1FD
:1019300004F58014761C761C307866280BD013DCF6
:10194000582877D009DC002875D04528F6D04628DD
:10195000F4D047281AD19DE118E0632835D06428D7
:1019600079D0652812D195E1702873D008DC6728FA
:10197000F1D069286FD06E280DD06F2806D1B5E060
:1019800073282CD0752875D0782874D05A461799AA
:1019900090476D1C75E1C4F30250022809D003285A
:1019A0000DD0D9F8001004280DD00D6009F10409FC
:1019B00067E1D9F80010EA17C1E90052F6E7D9F853
:1019C00000100D80F2E70D70F0E719F8041B8DF898
:1019D000001000208DF80100EA46012003E059F8CC
:1019E00004AB4FF0FF3061074FF0000102D40DE06F
:1019F00008F101018846B9420FDA8045F8DB1AF890
:101A000008100029F4D108E008F10101884681425C
:101A1000FADB1AF808100029F6D105985B46A0EB0E
:101A2000080721463846179A00F094FA284400EB3C
:101A3000080507E04DE029E10DE01AF8010B5A46D0
:101A400017999047B8F10108F7D25B46214638460E
:101A5000179A13E142E00A220092C4F302524FF0B7
:101A6000000A022A08D059F804CB032A4FEAEC7185
:101A70000AD00DE029E02AE009F1070121F0070270
:101A8000F2E802C1914609E00FFA8CFC4FEAEC71D2
:101A9000042A03D14FFA8CFC4FEAEC71002907DAD3
:101AA0000A460021DCF1000C61EB02012D2202E06C
:101AB000220504D52B228DF80420012203E0E20741
:101AC00001D02022F7E7904659E00A2102E01022D7
:101AD0000DE010214FF0000A00910BE010224FF0B2
:101AE000000A44F004040827009203E008224FF0A3
:101AF000000A0092C4F30252022A05D059F804CB1E
:101B00000021032A08D009E009F1070121F00702AA
:101B1000F2E802C1914605E01FFA8CFC042A01D1CB
:101B20000CF0FF0C4FF00008220728D5702806D0D3
:101B3000009B83F0100353EA0A0305D00EE0402215
:101B40008DF80420012208E05CEA010206D0302270
:101B50008DF804208DF8050002229046009B83F04A
:101B6000080353EA0A030AD15CEA010201D16207C1
:101B700005D530228DF804204FF001087F1E58282B
:101B800004D034A003900EA802900DE036A0F9E72F
:101B900053466046009AFEF749FD84460398825CEE
:101BA0000298401E029002705CEA0100F0D1029897
:101BB00006A9081A00F1200A600702D524F480342F
:101BC00000E00127574502DDA7EB0A0000E00020F6
:101BD00000EB0A01009005984144401A0590E0038B
:101BE00006D45B462146179A059800F0B3F90544E0
:101BF000002706E001A85A46C05D179990476D1C62
:101C00007F1C4745F6DBE0030CD55B462146179A5F
:101C1000059800F09FF9054404E030205A461799D2
:101C200090476D1C0099481E00900029F5DC08E0E3
:101C3000029802995A460078491C029117999047D8
:101C40006D1CBAF10001AAF1010AF1DC65E10000A6
:101C50000928010030313233343536373839616282
:101C60006364656600000000303132333435363746
:101C700038394142434445460000000000F058F91D
:101C80000544761C307800287FF4ECAD19B0284666
:101C9000BDE8F08F620700D4062709F1070222F0A1
:101CA000070CFCE80223E14603F000485FEA080C59
:101CB00002D00FF2702C0DE05FEA045C02D50FF247
:101CC000682C07E05FEAC47C02D00FF2602C01E0D0
:101CD000AFF2700C4FF0FF3823F00043CDF850C046
:101CE00065280CD006DC452809D046281DD0472899
:101CF0003DD13DE0662818D067287ED138E000212C
:101D0000112F01DB112000E0781CCDE9000106A9AC
:101D10000EA8FFF7DDFCDDE90F010E9A039100210B
:101D2000009207F1010A04914DE04FF00040009746
:101D3000CDE9011006A90EA8FFF7CAFCDDE90F02E4
:101D400003920E9B11990022DDF80CA000930492DF
:101D500011B9791C00EB010AB7EB0A0004D4C0F1F9
:101D6000FF3007F1010A0490AAEB0700019044E05C
:101D7000012F00DA01270021112F01DD112000E0E1
:101D80003846CDE9000106A90EA8FFF7A1FCDDE960
:101D90000F010E9A0391002104910092BA46210787
:101DA0000CD40399514500DA8A46BAF1010F05DDDA
:101DB000009AAAF10101515C302908D0B84202DA38
:101DC00010F1040F06DA0121CDE9011015E0AAF1A6
:101DD0000101E9E7002805DC049901440491AAEB1C
:101DE000000102E0411C514500DD8A460499401A79
:101DF000401C01904FF000400290200704D401984D
:101E0000504501DBCDF8048000208DF84F0002988A
:101E10000DF14F07B0F1004F25D02B200E90029806
:101E20004FF0020800280CDA404202902D200E905C
:101E300007E00A210298FEF7E3FB3031029007F831
:101E4000011DB8F10001A8F10108F2DC0298002898
:101E5000EFD1791E0E980870307800F0200040F025
:101E6000450007F8020D12A8C01B00F107081498DE
:101E7000007800B1012000EB0A01019801EBE0714C
:101E800005984144401A401E0590E00306D45B4685
:101E90002146179A059800F05DF8054414980078DB
:101EA00018B15A46179990476D1CE00324D55B463C
:101EB0002146179A059800F04DF805441CE0049857
:101EC000002807DBDDE90301884203DD0098405C60
:101ED000179901E0179930205A469047049805F168
:101EE0000105401C04900198401E019004D12E2051
:101EF0005A46179990476D1CBAF10001AAF1010AE0
:101F0000DDDC05E017F8010B5A46179990476D1C68
:101F1000B8F10001A8F10108F4DC5B462146179AEC
:101F20000598ABE62D0000002B000000200000000B
:101F30002DE9F041044600251E461746880404D4C6
:101F400005E039462020B0476D1C641EF9D52846AF
:101F5000BDE8F0812DE9F041044600251E4690467B
:101F6000C80301D5302700E02027880404D505E008
:101F700041463846B0476D1C641EF9D52846BDE879
:101F8000F081000010B56FF00400FFF7CDF80A48AB
:101F900000680A49B0FBF1F009490870084600786A
:101FA00000EB4001C1EBC0104FF6FF7101EAC00029
:101FB0000449088010BD00000000002000127A00D3
:101FC000280000202A00002070B504460D46E1B22A
:101FD0000548FFF756FB00BF80210348FFF7AEFA24
:101FE0000028F9D0204670BD0038014070B5044685
:101FF000124800684042FEF788FA05462146FEF77F
:10200000F5FA05D80D4800684042FEF77EFA04460E
:102010000A480068FEF779FA05462146FEF7DCFA21
:1020200004D806480068FEF770FA044604492046C2
:10203000FEF7DFF80446204670BD00005C0000207B
:102040000000B4428AB02422384901A8FEF76AF899
:10205000002400BF00BFFFF795FF40F2CF2140F200
:10206000CF70FFF7A7F8FFF721FAFEF789FC30A041
:10207000FFF70EFB58E035480078002854D00020C8
:1020800032490870324840886E280CD1FEF778FC3F
:10209000002405E020202E4921F81400601CC4B261
:1020A000082C41DAF6E72A48408879283CD12848AC
:1020B00080883038642148432549C98830390A224C
:1020C00002FB0101224800893038084485B22048CB
:1020D00040893038642148431D498989303902FBE1
:1020E00001011B48C0893038084486B2324629466F
:1020F00018A0FFF7CDFABDF80A30BDF80820314628
:102100002846FEF747FDBDF80A20BDF8081011A0CB
:10211000FFF7BEFA002405E020200D4921F8140045
:10212000601CC4B2082CF7DBA5E700005C210008A6
:10213000BBB6D3ADCAB9D3C3B1FCBBF053544D3316
:1021400032BFAAB7A2B0E50A0A0A0A002C00002092
:1021500068000020256425640A0000007D007D00E1
:1021600045017D000D027D007D00450145014501D1
:102170000D0245017D000D0245010D020D020D020B
:10218000A02100080000002068000000B016000830
:10219000082200086800002010040000C016000893
:1021A00000A24A0400000000000000000102030435
:1021B00006070809000000000102030401020304ED
:1021C00006070809020406080000000000000000DD
:1021D00000000000000000000000000000000000FF
:1021E00000000000000000000000000000000000EF
:1021F00000000000000000000000000004000000DB
:082200000100000000000000D5
:04000005080000ED02
:00000001FF
